:100000000C94B6010C94A5050C947E050C94DE01AD
:100010000C94DE010C94DE010C94DE010C94DE01E4
:100020000C94DE010C94DE010C94DE010C94DE01D4
:100030000C94DE010C94DE010C94DE010C94DE01C4
:100040000C9434050C94DE010C94A70A0C94810ADC
:100050000C94DE010C94DE010C94DE010C94DE01A4
:100060000C94CC050C94DE01313A313A3031000069
:10007000000000240027002A0000000000250028BE
:10008000002B0000000000230026002900040404C7
:100090000404040404020202020202030303030331
:1000A000030102040810204080010204081020010E
:1000B00002040810200000000800020100000304F0
:1000C00007000000000000000020200000000000E9
:1000D00000FF0700000000000005052020000000D0
:1000E0000004FF04FF0401FF0108FF0607FF0500ED
:1000F0000001200401040120040806022003070275
:1001000004052000000000000008010304000000B6
:1001100000010204050000000001040401040101C3
:100120000404FF0401FF010000200500000000009E
:10013000000404042020200000200400000000002F
:10014000002020040104012020080102030405000E
:100150000001022004FF040000060602FF0707005A
:100160000001060204070500000304FF2020FF0031
:1001700000FF06060707050000080606030705003E
:100180000001010220082000000806020307050004
:10019000000806020707050000A5A50000000000F2
:1001A000000405000000000000200401010104001B
:1001B0000004040401010100000104200401010005
:1001C00000010602200720000008060203040400C4
:1001D00000080602FF20FF0000FF0605FF070200DF
:1001E000000801010304040000FF0102FF040500F0
:1001F00000FF0606FF07070000FF0606FF2020009D
:10020000000801010304020000FF04FFFF20FF00BB
:100210000001FF0104FF0400002020FF040405008A
:1002200000FF0405FF20020000FF2020FF0404005F
:100230000008030502FF2020FFFF0220FFFF20032C
:10024000FF0801020304050000080602FF20200049
:1002500000080102200304FF04FF0602FF20020041
:1002600000080606070705000001FF0120FF200027
:1002700000FF20FF030405000003202005200208E2
:1002800020FF2020FF0308020503040508200200C8
:100290000003040520FF20000001060508070400F4
:1002A00000FF01FF040000000001042020202001C5
:1002B0000401FF04FF0000000008022020000000ED
:1002C0000020202004040400004B6C6F4B207C2095
:1002D0004275696C643A202020004B6C6F4B207C87
:1002E00020467265652052414D3A004B6C6F4B20A1
:1002F000000404041C0000000004040404040404BA
:100300000004040407000000001F15151511111F3B
:1003100000001F1F1F1F1F00001B1B1B1B1B1B1B85
:1003200000181C1E1F1E1C18001F1F1F00000000AD
:1003300000181C1E1F1F1F1F1F1F1F1F1F1F0F071F
:100340000300000000001F1F1F1F1F1F1F1F1E1C78
:10035000181F1F1F0000001F1F1F000000001F1F8D
:100360001F03070F1F1F1F1F1F00371111241FBE60
:10037000CFEFD8E0DEBFCDBF11E0A0E0B1E0E6E016
:10038000FBE202C005900D92AA3AB107D9F724E02A
:10039000AAEAB1E001C01D92A031B207E1F711E075
:1003A000C6EBD1E004C02197FE010E943A13C53B81
:1003B000D107C9F70E942D0C0C9481150C940000F4
:1003C000833081F028F4813099F08230A1F00895D3
:1003D0008730A9F08830B9F08430D1F48091800062
:1003E0008F7D03C0809180008F7780938000089577
:1003F00084B58F7702C084B58F7D84BD08958091C8
:10040000B0008F7703C08091B0008F7D8093B000E3
:100410000895CF93DF93282F30E0F901EB54FF4F7D
:100420008491F901EF55FF4FD491F901E357FF4F44
:10043000C491CC2391F081110E94E001EC2FF0E0F7
:10044000EE0FFF1FED57FF4FA591B491EC91ED23F7
:1004500081E090E021F480E002C080E090E0DF9154
:10046000CF9108958E3008F08E508770806480930D
:100470007C0080917A00806480937A0080917A0079
:1004800086FDFCCF809178002091790090E0922B3E
:100490000895089585ED8093BC008091BC0084FD93
:1004A000FCCF1092FE0108954091D801262F30E034
:1004B000240F311D21323105DCF42091FE0124305E
:1004C000C9F4FC0180E090E0861758F43091D8011F
:1004D0002191DC01AA54BE4FA30FB11D2C930196AC
:1004E000F3CF8091D801680F6093D80180E0089520
:1004F00081E0089582E0089508958FEF9FEF0895B9
:100500008FEF9FEF08958091B50190E091958195CF
:1005100091090895CF93DF9300D0CDB7DEB7CB011B
:10052000642F49835A830E9454024981842F5A813F
:10053000952F0F900F90DF91CF910895CF93DF9378
:100540001F92CDB7DEB7698361E0CE0101960E94AC
:10055000540281E090E00F90DF91CF910895FC016B
:1005600086810E94090208956623F1F01092B2017B
:100570002093AE013093AF014093B0015093B1018D
:100580002FB7F8948091290290912A02A0912B0212
:10059000B0912C022FBF8093AA019093AB01A0933E
:1005A000AC01B093AD0128C08091B201811124C08B
:1005B0002FB7F8948091290290912A02A0912B02E2
:1005C000B0912C022FBF4091AA015091AB016091D4
:1005D000AC017091AD01841B950BA60BB70B40913C
:1005E000AE015091AF016091B0017091B101481717
:1005F00059076A077B0718F08091B201089581E0DE
:100600008093B201F9CFDF92EF92FF920F931F9385
:10061000CF93DF93EC018F89988D009711F09A8F1B
:10062000898F8E810E943202893E9340E4F586E1F3
:10063000D82E8E810E9432027C018E810E9432026D
:100640008701081B190B8E810E943202080F191FA7
:100650008E810E943202081B190B8E810E94320289
:10066000080F191F8E810E9432020817190721F006
:10067000DA94D110DECF17C088E7E816F104B4F0A1
:100680002AEFE216F104ACF082ECE81681E0F806FD
:100690009CF02AE8E21622E0F2068CF082E5E816E9
:1006A00083E0F8067CF080E090E00EC081E090E00E
:1006B0000BC082E090E008C083E090E005C084E0D9
:1006C00090E002C085E090E0988F8F8B2985892B80
:1006D00011F0822F03C081E0211180E0DF91CF91E2
:1006E0001F910F91FF90EF90DF900895DC01ED9145
:1006F000FC910284F385E02D41E0099581E090E0D2
:10070000089508950895CF93DF93809150020E9439
:100710000902EC0180914F020E940902CC0FDD1FFB
:100720008C2BE0914E02EF7094E0E99FF0011124D0
:10073000E80FF11DEB5EFE4F808180934E028073C7
:1007400099F0803131F4809102019091030101967A
:1007500007C0803249F48091020190910301019712
:100760009093030180930201DF91CF9108951F932D
:10077000CF93DF93282F30E0F901EB54FF4F8491A2
:10078000F901EF55FF4FD491F901E357FF4FC491A1
:10079000CC23C9F0162F81110E94E001EC2FF0E06C
:1007A000EE0FFF1FE758FF4FA591B4918FB7F89454
:1007B000111105C09C91ED2FE095E92302C0EC9149
:1007C000ED2BEC938FBFDF91CF911F910895AF92E6
:1007D000BF92CF92DF92EF92FF920F931F93CF932E
:1007E000DF938C015C018EE0A80EB11CE42EF12C8D
:1007F000C0E0D0E0C62ED12CCE15DF0579F0B601D1
:100800000C2E02C0759567950A94E2F76170F501A8
:1008100081915F010E94B7032196EECF61E0F8015C
:1008200085850E94B70360E0F8018585DF91CF914F
:100830001F910F91FF90EF90DF90CF90BF90AF90FE
:100840000C94B703FC0186898F3F79F021853285AE
:10085000662319F0232B31F403C02130310511F444
:1008600061E001C060E00C94B70308950F931F93FB
:10087000CF93DF93EC01162F042F61E0413009F094
:1008800060E08B850E94B7038C858F3F19F060E094
:100890000E94B703023081F08C8184FF02C048E0DF
:1008A0000CC0612F70E084E0759567958A95E1F73B
:1008B00044E0CE010E94E70344E0612FCE01DF91C6
:1008C000CF911F910F910C94E703CF93DF9390E0AA
:1008D000FC01EF55FF4F2491FC01E357FF4F84913A
:1008E000882361F190E0880F991FFC01E159FF4FC7
:1008F000C591D491FC01E758FF4FA591B4916111C6
:1009000009C09FB7F8948881209582238883EC9151
:100910002E230BC0623061F49FB7F8943881822F88
:10092000809583238883EC912E2B2C939FBF06C048
:100930008FB7F894E8812E2B28838FBFDF91CF915A
:100940000895CF93DF93EC0160E08E810E946504EF
:100950008885882331F061E08E81DF91CF910C94FE
:10096000B703DF91CF91089560E0FC0186810C947C
:100970006504EF92FF921F93CF93DF93EC01162F44
:100980007A0161E0812F0E9465041E8BFA86E98658
:10099000E881F9810084F185E02D60E0CE01DF91EE
:1009A000CF911F91FF90EF9009943FB7F8948091F9
:1009B000250290912602A0912702B091280226B527
:1009C000A89B05C02F3F19F00196A11DB11D3FBF87
:1009D000BA2FA92F982F8827820F911DA11DB11D15
:1009E000BC01CD0142E0660F771F881F991F4A9511
:1009F000D1F708958F929F92AF92BF92CF92DF92DC
:100A0000EF92FF926B017C010E94D5044B015C01C7
:100A1000C114D104E104F104F1F00E94D504DC0119
:100A2000CB0188199909AA09BB09883E9340A10501
:100A3000B10570F321E0C21AD108E108F10888EE8F
:100A4000880E83E0981EA11CB11CC114D104E104DE
:100A5000F10419F7DDCFFF90EF90DF90CF90BF90BA
:100A6000AF909F908F9008951F920F920FB60F92A4
:100A700011242F933F938F939F93AF93BF938091B4
:100A8000290290912A02A0912B02B0912C02309160
:100A9000240223E0230F2D3720F40196A11DB11D60
:100AA00005C026E8230F0296A11DB11D2093240244
:100AB0008093290290932A02A0932B02B0932C02D8
:100AC0008091250290912602A0912702B0912802E0
:100AD0000196A11DB11D8093250290932602A0933B
:100AE0002702B0932802BF91AF919F918F913F91C0
:100AF0002F910F900FBE0F901F9018951F920F927D
:100B00000FB60F9211242F933F934F935F936F93E0
:100B10007F938F939F93AF93BF93EF93FF93E09156
:100B20000601F09107010995FF91EF91BF91AF91F7
:100B30009F918F917F916F915F914F913F912F91F5
:100B40000F900FBE0F901F9018951F920F920FB627
:100B50000F9211242F933F934F935F936F937F9343
:100B60008F939F93AF93BF93EF93FF93E091040113
:100B7000F09105010995FF91EF91BF91AF919F9180
:100B80008F917F916F915F914F913F912F910F9036
:100B90000FBE0F901F9018951F920F920FB60F92D5
:100BA00011242F933F934F935F936F937F938F9372
:100BB0009F93AF93BF93EF93FF938091B900887F8A
:100BC000803609F49CC068F5883209F45BC090F463
:100BD000803109F454C038F4882309F4F6C0883011
:100BE00009F44DC0F6C0883109F44CC0803209F4D4
:100BF0005DC0EFC0803409F468C048F4803309F464
:100C000055C0883309F0E5C08093FD01D8C0803518
:100C100009F44FC0883509F45DC0883409F0D9C0A3
:100C2000D6C0883909F4C7C0A8F4883709F467C06A
:100C300038F4883609F463C0803709F460C0C9C04D
:100C4000883809F4B8C0803909F45FC0803809F0E9
:100C5000C0C05BC0803B09F486C038F4803A09F418
:100C600066C0883A09F47FC0B4C0803C09F4A7C0CC
:100C7000883C09F4A4C0883B09F48AC0AAC08091CA
:100C8000230210C09091220280912102981770F5E2
:100C9000E091220281E08E0F80932202F0E0EF5F6C
:100CA000FD4F80818093BB0085EC86C08093FD0161
:100CB0008EC0E091220281E08E0F8093220280910B
:100CC000BB00F0E0EF5FFD4F8083909122028091A6
:100CD00021026EC0E091220281E08E0F80932202F9
:100CE0008091BB00F0E0EF5FFD4F808380910002B8
:100CF00081116DC081E08093FF0184EA61C083E0CF
:100D00008093FE011092FC01CFCF8091FC018032D4
:100D100008F051C0E091FC0181E08E0F8093FC014E
:100D20008091BB00F0E0E452FE4F8083BDCF85ECA4
:100D30008093BC001092FE018091FC01803230F45F
:100D4000E091FC01F0E0E452FE4F10826091FC0162
:100D500070E0E091DA01F091DB018CED91E0099512
:100D60001092FC0136C084E08093FE011092D901FC
:100D70001092D801E091D601F091D70109958091A8
:100D8000D801811105C081E08093D8011092B6018D
:100D9000E091D90181E08E0F8093D901F0E0EA540F
:100DA000FE4F80818093BB009091D9018091D80142
:100DB000981708F479CF85E88093BC000AC085ECC9
:100DC0008093BC001092FE0104C01092FD010E94AD
:100DD0004A02FF91EF91BF91AF919F918F917F91C7
:100DE0006F915F914F913F912F910F900FBE0F9098
:100DF0001F9018951F93CF93DF93EC01E881F98141
:100E00000190F081E02D0995182F81E09F81191341
:100E100001C080E09985191348C0882369F02A85AC
:100E20003B854C855D8561E0CE010E94B402109245
:100E3000B4011092B30120C08A819B818430910556
:100E4000D9F0019709F042C08091B401811116C018
:100E500020E030E0A90160E0CE010E94B4028823C6
:100E600059F02E853F854889598961E0CE010E945D
:100E7000B40281E08093B40191E02BC08091B30172
:100E8000811124C020E030E0A90160E0CE010E9481
:100E9000B402882389F381E08093B3018A899B8916
:100EA00001969B8B8A8B94E014C0882389F08091F3
:100EB000B401882369F08091B301811109C08C8944
:100EC0009D8901969D8B8C8B92E003C09FEF01C0A2
:100ED00090E01F832A813B813D832C83892F90E002
:100EE0009B838A83DF91CF911F910895DC01ED915F
:100EF000FC910284F385E02D40E0099461E00E94BA
:100F000076078BE39FE10197F1F708950F931F9305
:100F1000CF93DF93EC01423018F08C8188608C8392
:100F20004F836887222329F0413019F48C81846033
:100F30008C8364E670E080E090E00E94FA046C81AB
:100F400064FD31C0E881F9810284F385E02D42E03F
:100F500063E0CE0109958BE496E40197F1F7E8810F
:100F6000F9810284F385E02D42E063E0CE0109952A
:100F700003E512E0C8010197F1F7E881F9810284E5
:100F8000F385E02D42E063E0CE010995C8010197A9
:100F9000F1F7E881F9810284F385E02D42E062E017
:100FA000CE01099517C06062CE010E9476078BE4DE
:100FB00096E40197F1F76C816062CE010E9476079A
:100FC00003E512E0C8010197F1F76C816062CE0180
:100FD0000E947607C8010197F1F76C816062CE012B
:100FE0000E9476078BEE90E00197F1F784E08D8305
:100FF0006CE0CE010E947607CE010E947E0782E05F
:101000008E8366E0CE010E947607E881F981008434
:10101000F185E02D6FEFCE01DF91CF911F910F9100
:101020000994DC018D919C91DC01ED91FC91019082
:10103000F081E02D09948F929F92AF92BF92CF9250
:10104000DF92EF92FF9261E08BE00E94970B20E02D
:1010500030E048EC52E46091090170910A018091FE
:101060000B0190910C010E94AD1387FF04C081E930
:1010700091E00E94F20BC0900901D0900A01E0902B
:101080000B01F0900C01A7019601C701B6010E9467
:101090007715882319F08FE791E01AC046015701B0
:1010A000E894B7F82FEF3FEF4FE75FE7C501B401D2
:1010B0000E947715811116C02FEF3FEF4FE75FE7D2
:1010C000C501B4010E94AD13181664F483E891E0E1
:1010D000FF90EF90DF90CF90BF90AF909F908F9058
:1010E0000C94390B2FEF3FEF4FE75FE4C701B601D8
:1010F0000E94051518161CF487E891E0E9CF2FEF40
:101100003FEF4FE75FECC701B6010E94AD1387FDCB
:10111000F3CF20E030E0A901C701B6010E94AD1372
:1011200087FF07C08DE20E948C0BF7FAF094F7F866
:10113000F0942DEC3CEC4CE45DE3C701B6010E9459
:1011400041134B015C010E9424146B017C010E943D
:1011500053149B01AC01C501B4010E9440134B0123
:101160005C014AE0C701B6010E944B0B8BE891E09D
:101170000E94390B20E030E040E251E4C501B401A7
:101180000E940A150E94241480E090E04AE0FF903B
:10119000EF90DF90CF90BF90AF909F908F900C9486
:1011A0004B0BCF9360E08EE00E94970B80912D0255
:1011B00090912E02A0912F02B09130028F7099274A
:1011C000AA27BB2742E0B695A795979587954A959C
:1011D000D1F763E0680F89EE93E00E94760361E047
:1011E00086E00E94970B8DE891E00E94F20B61E08F
:1011F00080E00E94970B80912D0290912E02A09189
:101200002F02B09130020097A105B10509F447C043
:1012100024E0B695A795979587952A95D1F7BC01B7
:10122000CD016F5F7F4F8F4F9F4F4AE00E944B0B66
:1012300083E991E00E94F20B80912D0290912E02A1
:10124000A0912F02B09130028F709927AA27BB2757
:1012500032E0B695A795979587953A95D1F7BC0159
:10126000CD016F5F7F4F8F4F9F4F4AE00E944B0B26
:1012700083E991E00E94F20B60912D026F70C1E052
:10128000C60FCA3020F485E991E00E94F20B6C2F62
:1012900070E080E090E04AE0CF910C944B0B88E640
:1012A00090E0CF910C94D10B8FB7F894209102016C
:1012B000309103012D3231401CF02CE231E009C0A5
:1012C00020910201309103012E31310534F42EE1D9
:1012D00030E030930301209302012091020130910C
:1012E000030130930E0120930D018FBF20910D015A
:1012F00030910E0181E040910001509101012417CD
:10130000350709F480E0309301012093000108952E
:10131000CF92DF92EF92FF920F931F93CF93DF93C1
:101320006C017A018B01C0E0D0E0CE15DF0589F0B9
:10133000D8016D918D01D601ED91FC910190F08164
:10134000E02DC6010995892B11F47E0102C021967A
:10135000ECCFC701DF91CF911F910F91FF90EF90DC
:10136000DF90CF900895FC01918D828D981761F0E8
:10137000828DDF01A80FB11D5D968C91928D9F5FCC
:101380009F73928F90E008958FEF9FEF0895FC0177
:10139000918D828D981731F0828DE80FF11D858D2A
:1013A00090E008958FEF9FEF0895FC01918D228DBD
:1013B000892F90E0805C9F4F821B91098F73992742
:1013C000089581E992E00E94D50921E0892B09F472
:1013D00020E0822F0895FC01848DDF01A80FB11D4C
:1013E000A35ABF4F2C91848D90E001968F7399275B
:1013F000848FA689B7892C93A089B1898C91806448
:101400008C93938D848D981306C00288F389E02D08
:1014100080818F7D80830895EF92FF920F931F93B9
:10142000CF93DF93EC0181E0888F9B8D8C8D981397
:1014300005C0E889F989808185FD24C0F62E0B8DD1
:1014400010E00F5F1F4F0F731127E02E8C8DE812F5
:101450000CC00FB607FCFACFE889F989808185FFB7
:10146000F5CFCE010E94EB09F1CF8B8DFE01E80F85
:10147000F11DE35AFF4FF0820B8FEA89FB898081CF
:10148000806207C0EE89FF896083E889F9898081DD
:101490008064808381E090E0DF91CF911F910F9174
:1014A000FF90EF900895CF93DF93EC01888D882310
:1014B000C9F0EA89FB89808185FD05C0A889B989C1
:1014C0008C9186FD0FC00FB607FCF5CF808185FF9C
:1014D000F2CFA889B9898C9185FFEDCFCE010E940A
:1014E000EB09E7CFDF91CF91089580E090E0892B61
:1014F00029F00E94E10981110C94000008950E94D6
:101500007C151F920F920FB60F9211242F933F93C9
:101510004F935F936F937F938F939F93AF93BF93FB
:10152000EF93FF9381E992E00E94EB09FF91EF9125
:10153000BF91AF919F918F917F916F915F914F91EB
:101540003F912F910F900FBE0F901F9018951F92F3
:101550000F920FB60F9211242F938F939F93EF93B7
:10156000FF93E091A102F091A2028081E091A70295
:10157000F091A80282FD12C090818091AA028F5F33
:101580008F732091AB02821751F0E091AA02F0E034
:10159000EF56FD4F958F8093AA0201C08081FF9185
:1015A000EF919F918F912F910F900FBE0F901F90F1
:1015B00018956FEF680F603120F58091520390917C
:1015C0005303DC01ED91FC91606B0190F081E02D03
:1015D00009958091520390915303DC01ED91FC91A8
:1015E0000190F081E02D6BE7099580915203909175
:1015F0005303DC01ED91FC910190F081E02D60E05E
:10160000099408950F931F93CF93DF93EC010EE29B
:1016100013E0D80194968D919C919597DC01ED9102
:10162000FC910190F081E02D62EF0995F80184A111
:1016300095A1DC01ED91FC91BE016F7777270190B8
:10164000F081E02D0995F80184A195A1DC01ED91CF
:10165000FC91BE01660F672F661F770B71956F7740
:1016600077270190F081E02DDF91CF911F910F91AD
:101670000994009769F0FC0101900020E9F7319787
:10168000AF01481B590BBC0189EE93E00C9488090B
:1016900080E090E008958F929F92AF92BF920F9357
:1016A0001F93CF93DF93CDB7DEB7A1970FB6F89412
:1016B000DEBF0FBECDBF19A2423008F44AE08E0152
:1016C0000F5D1F4F842E912CA12CB12CA5019401EC
:1016D0000E941813E62FB901CA0101501109EA301E
:1016E00014F4E05D01C0E95CD801EC93232B242BBA
:1016F000252B61F7C8010E94390BA1960FB6F8940B
:10170000DEBF0FBECDBFDF91CF911F910F91BF9074
:10171000AF909F908F900895E091E903F091EA03D4
:101720000190F081E02D682F89EE93E00994CF932A
:10173000DF93CDB7DEB728970FB6F894DEBF0FBEA4
:10174000CDBF1D8290E49E8324E12F8324E528876A
:1017500019829A8390E19B8390E59C839091F0039A
:10176000691710F06FEF690F4091F103262F30E0F9
:10177000FE01E20FF31F403121F4943011F4918106
:1017800001C09581682F690F606889EE93E0289603
:101790000FB6F894DEBF0FBECDBFDF91CF910C9492
:1017A00076070F931F93CF93DF938C01C0E0D0E0B7
:1017B000F801EC0FFD1F6491662371F0E091E903DD
:1017C000F091EA030190F081E02D89EE93E0099514
:1017D000892B11F02196ECCFCE01DF91CF911F9193
:1017E0000F9108950C94390BCF93C1E08C2F0E9478
:1017F000D90ACF5FC131D1F7CF910895EF92FF920F
:101800000F931F93CF93DF93EB01877098E0899F2D
:10181000B0011124606489EE93E00E94760783E7AB
:1018200090E00197F1F78E01085F1F4F8BE9E82EDA
:10183000F12CFE01649189EE93E00E947603C701CA
:101840000197F1F72196C017D10799F7DF91CF9152
:101850001F910F91FF90EF900895CF93DF9300D0E9
:10186000CDB7DEB7789484B5826084BD84B58160DD
:1018700084BD85B5826085BD85B5816085BD80915B
:101880006E00816080936E001092810080918100D3
:1018900082608093810080918100816080938100CB
:1018A000809180008160809380008091B10084608D
:1018B0008093B1008091B00081608093B0008091EE
:1018C0007A00846080937A0080917A0082608093AD
:1018D0007A0080917A00816080937A0080917A000A
:1018E000806880937A001092C100209109013091A4
:1018F0000A0140910B0150910C0160EC71EE84E6FD
:101900009CE40E94B21320E030E040EC51E40E94DD
:10191000B213609342027093430280934402909307
:1019200045020E94241460934602709347028093FC
:1019300048029093490220E042E060E189EE93E0A2
:101940000E94860789EE93E00E947E0788E692E077
:101950000E94B40461E0809183020E94650461E00A
:1019600080918802811160E06093900280918302EF
:101970000E94B703E0915203F0915303A089B1890B
:1019800082E08C93A485B5851C92A685B7858FE3EC
:101990008C93108EA489B58986E08C93A289B38933
:1019A0008C9180618C93A289B3898C9188608C938F
:1019B000A289B3898C9180688C930288F389E02D89
:1019C00080818F7D80831092540310925603109271
:1019D000550310925D0310925C0310925B0310920A
:1019E0005A038FEF9FEF90935F0380935E03909372
:1019F0006103809360031092E803109265031092D4
:101A0000640310926303109266031092670380913F
:101A10006203817082608160809362036CEF70E08A
:101A200082E593E00E94110880912D0290912E0290
:101A30000E94020B0E94F40B81E592E00E94A10437
:101A40000E94540923E833E03093050120930401F8
:101A5000809169008C7F816080936900E89A30935F
:101A600007012093060180916900837F8460809341
:101A70006900E99A10923C0203E710E06BE9C62E78
:101A8000D12C83E392E078E0F72EF80E60913C02CF
:101A9000683008F03AC080E028E0629FA00111247D
:101AA000282F30E0F901E40FF51FE75DFC4FE491CA
:101AB000D901AD5CBD4FEC938F5F883089F780937F
:101AC0003B026F5F677038E0639FB0011124606470
:101AD00089EE93E00E947607C8010197F1F753E37E
:101AE000A52E52E0B52EF50161915F0189EE93E0DC
:101AF0000E947603C6010197F1F7FA10F4CF8091A6
:101B00003C028F5F80933C02C1CF07E911E0F12CCA
:101B1000F80181918F01882309F467C090EE980F36
:101B2000903408F05DC030E020E0082E000C990BE6
:101B3000809743E0880F991F4A95E1F7283081F09C
:101B4000422F50E0FA01E80FF91FE753FF4FE491ED
:101B5000DA01AD5CBD4FEC93E1113F5F2F5FEECF3B
:101B600030933C0210923B0210923202CF2CD12CC7
:101B70008091320290E002976CF5F09231028091F0
:101B80003102482F50E090913C0296959601290F22
:101B9000311D42175307C4F4609132020E94970B23
:101BA000E0913B0281E08E0F80933B02F0E0ED5C20
:101BB000FD4F608189EE93E00E94760380913102AF
:101BC0008F5F80933102DBCF809132028F5F8093F1
:101BD0003202CECF80913C02869590E0019702C000
:101BE00080E090E00196F80E93CF64EF71E080E022
:101BF00090E00E94FA0404E010E068E189EE93E0CE
:101C00000E94760768EC70E080E090E00E94FA04A1
:101C10000150110991F704E010E068EC70E080E0F9
:101C200090E00E94FA046CE189EE93E00E9476074E
:101C30000150110991F768EE73E080E090E00E9496
:101C4000FA0461E273E080E00E94FE0B69E173E058
:101C500081E00E94FE0B61E173E082E00E94FE0BD6
:101C600069E073E083E00E94FE0B61E073E084E0D2
:101C70000E94FE0B69EF72E085E00E94FE0B61EFAF
:101C800072E086E00E94FE0B89EE93E00E947E07E0
:101C900089EC92E00E94D10B61E080E00E94970BFA
:101CA00081E391E00E94F20B68EB7BE080E090E042
:101CB0000E94FA0489EE93E00E947E078AED92E08A
:101CC0000E94D10B61E080E00E94970B20910C04F0
:101CD00030910D04CE0101962115310519F4805182
:101CE000944002C0821B930B9A83898389809A80D7
:101CF000092C000CAA08BB08B7FE0CC08DE20E949C
:101D00008C0B66277727CB01681979098A099B090B
:101D10004AE003C04AE0C501B4010E944B0B60EDEC
:101D200077E080E090E00E94FA0489EE93E00E9460
:101D30007E078BEE92E00E94D10B0E941B0860E0B0
:101D40008FE00E94970B62E089EE93E00E94760399
:101D500061E080E00E94970B8CE991E00E94F20B19
:101D600011E08CE0382E812C912C96E9A92E93E479
:101D7000B92E412C512C20EF622E21E4722E8FB708
:101D8000F894C0902902D0902A02E0902B02F090A3
:101D90002C028FBF80918B028823A9F0C0928C0205
:101DA000D0928D02E0928E02F0928F0260918802B2
:101DB00060939002809183020E94B70310938A027D
:101DC00010928B0246C080918A02882309F441C098
:101DD00080918C0290918D02A0918E02B0918F0221
:101DE000B701A601481B590B6A0B7B0B809184023B
:101DF00090918502A0918602B091870248175907F9
:101E00006A077B0730F1809189029091880261E036
:101E1000882321F080919002891759F0911160E098
:101E200060939002809183020E94B70310928A020D
:101E300010C0811160E060939002809183020E9443
:101E4000B703C0928C02D0928D02E0928E02F09283
:101E50008F020E94D50460934A0270934B028093D4
:101E60004C0290934D02C0904602D0904702E09001
:101E70004802F09049029B01AC012C193D094E0922
:101E80005F0969017A016091420270914302809179
:101E90004402909145020E9424146C157D058E0524
:101EA0009F0508F0BAC068EF70E082E593E00E94F9
:101EB000110880914102882309F440C060E08FE05E
:101EC0000E94970B80913F02882381F06CEF70E0B5
:101ED00082E593E00E94110861E089EE93E00E94A0
:101EE000760310923F021093400226C08091400278
:101EF000882329F0109240026BEF70E012C010921C
:101F00003D0210922D0210922E0210922F0210927A
:101F100030023092080180E090E00E94020B6AEFEC
:101F200070E082E593E00E94110860E089EE93E0A2
:101F30000E94760310933F021092410280913F026B
:101F4000882309F44CC080913D028F5F80933D024D
:101F5000209108019FEF920F909308012C3039F4E3
:101F600090918A02911107C010938B0204C09111C5
:101F700002C030920801813099F480913E0288239A
:101F800061F180912D0290912E020E94020B6AEF66
:101F900070E082E593E00E94110810923E021DC09D
:101FA000863041F08C3031F0823121F08831B8F048
:101FB00010923D0280912D0290912E02A0912F024D
:101FC000B09130020196A11DB11D80932D02909316
:101FD0002E02A0932F02B09330020E94D10860918C
:101FE00046027091470280914802909149020E94F6
:101FF0005314209142023091430240914402509187
:1020000045020E9441130E9424146093460270937B
:102010004702809348029093490288E692E00E942A
:10202000FA066C010E9454098823A1F060910D0109
:1020300070910E01072E000C880B990B0E9455140D
:102040006093090170930A0180930B0190930C0136
:1020500001E001C000E081E592E00E94FA068230D2
:10206000910509F4FEC0049709F4FEC0F2E0CF1612
:10207000D10491F480916A0290916B02029729F445
:10208000309181022091820204C030917F02209120
:102090008002832F922F16C034E0C316D10409F0BA
:1020A000BEC080916A0290916B02029729F48091E0
:1020B00081029091820204C080917F0290918002FF
:1020C00088519C4F97FDABC08530910551F16CF460
:1020D0008330910509F477C00CF5029709F09FC091
:1020E0002DEC3CEC4CEC5DE34BC08A3E43E09407A6
:1020F00009F442C08B3E53E0950709F48BC0893E3A
:10210000934009F08CC010933E0260E08CE00E9486
:10211000970B88EA91E00E94F20B81C01093410274
:102120007EC06CEF70E082E593E00E9411080E948F
:10213000F40B10922D0210922E0210922F02109288
:10214000300280E090E00E94020B60E08EE00E948E
:10215000970B80E20E948C0B62E089EE93E00E9474
:1021600076031092400210923F0201115AC00E9461
:102170001B080E94D10872C020E030E040E251E428
:102180006091090170910A0180910B0190910C01FD
:102190000E9441136093090170930A0180930B011F
:1021A00090930C0120E030E046E953E40E940515CD
:1021B0001816BCF54092090150920A0160920B0179
:1021C00070920C012EC02DEC3CEC4CEC5DE3609168
:1021D000090170910A0180910B0190910C010E94FC
:1021E00040136093090170930A0180930B0190934F
:1021F0000C0120E030E040EF51E40E94AD1387FF76
:1022000010C08092090190920A01A0920B01B09235
:102210000C0107C020E030E040E251E4D8CF0023B9
:10222000E9F02091090130910A0140910B01509190
:102230000C0160EC71EE84E69CE40E94B21320E095
:1022400030E040EC51E40E94B2136093420270937C
:102250004302809344029093450289CF0E94750AFD
:102260008ECD84E090E030CF85E090E02DCF0F93CD
:102270001F93CF93DF93109294021092930288EEF3
:1022800093E0A0E0B0E08093950290939602A09333
:102290009702B093980223E431E0309392022093A6
:1022A000910225EC30E030939E0220939D0224ECB5
:1022B00030E03093A00220939F0220EC30E0309376
:1022C000A2022093A10221EC30E03093A4022093DB
:1022D000A30222EC30E03093A6022093A50226EC64
:1022E00030E03093A8022093A7021092AA02109225
:1022F000AB021092AC021092AD0210920304109245
:1023000002048093040490930504A0930604B09300
:10231000070483E591E090930104809300041092F8
:10232000EC031092EB0383E791E09093EA03809330
:10233000E90388E08093F4038FEF8093F50389E04D
:102340008093F60384E08093F70385E08093F8039D
:1023500086E08093F90387E08093FA031092FB03F1
:102360001092FC031092FD031092FE03C7EFD3E01E
:102370001C2F1C5F61E089910E9465041C13FACF39
:1023800061E08091F4030E9465048091F5038F3F22
:1023900019F061E00E94650461E08091F6030E94FB
:1023A00065041092ED0360E08091F4030E94B7038E
:1023B00060E08091F6030E94B7038091F5038F3FA0
:1023C00019F060E00E94B7038FEF8093FF03109233
:1023D000F3031092F20381E992E090935303809308
:1023E0005203109254031092550310925603109208
:1023F0005B0310925A0310925D0310925C038FEFFF
:102400009FEF90935F0380935E03909361038093AB
:10241000600383E08093620310926303109265036C
:102420001092640310926603109267031092E803FF
:1024300080E8E8E6F3E0DF011D928A95E9F7109263
:102440002F0310922E03109231031092300310923A
:10245000330310923203109235031092340310921A
:1024600037031092360310923903109238031092FA
:102470003B0310923A0310923D0310923C031092DA
:102480003F0310923E0310924103109240031092BA
:10249000430310924203109245031092440310929A
:1024A000470310924603109249031092480310927A
:1024B0004B0310924A0310924D0310924C0310925A
:1024C0004F0310924E03109251031092500381E07B
:1024D000809388021092890291E1909383024FE0E9
:1024E00050E060E070E04093840250938502609376
:1024F00086027093870210928B0210928A021092C9
:102500008C0210928D0210928E0210928F02809394
:1025100070021092710202E310E020E030E00093BC
:10252000720210937302209374023093750246EB8B
:1025300053E060E070E0409376025093770260933E
:1025400078027093790210927B0210927A021092B4
:102550007D0210927C0210926E0210927E02809395
:102560006F0210926D0210926C0210926B02109228
:102570006A02EBE6F1E0F0936902E09368021092E0
:10258000800210927F021092820210928102E3E692
:10259000F1E0F0935202E0935102809359021092BD
:1025A0005A0200935B0210935C0220935D02309309
:1025B0005E0240935F0250936002609361027093E9
:1025C00062021092640210926302109266021092EC
:1025D00065029FE0909357029093670280935802A0
:1025E0001092560210925502109254021092530209
:1025F00082E080934F0283E08093500260E082E0AB
:102600000E94650460E0809150020E94650461E0D0
:1026100080914F020E94B70361E0809150020E94B6
:10262000B70310924E02DF91CF911F910F91089541
:10263000A1E21A2EAA1BBB1BFD010DC0AA1FBB1FC6
:10264000EE1FFF1FA217B307E407F50720F0A21B38
:10265000B30BE40BF50B661F771F881F991F1A94A5
:1026600069F760957095809590959B01AC01BD01CF
:10267000CF010895EE0FFF1F0590F491E02D09940E
:102680005058BB27AA270E9458130C94CB140E94C1
:10269000BD1438F00E94C41420F039F49F3F19F49F
:1026A00026F40C94BA140EF4E095E7FB0C94B414E1
:1026B000E92F0E94DC1458F3BA17620773078407E6
:1026C000950720F079F4A6F50C94FE140EF4E0952D
:1026D0000B2EBA2FA02D0B01B90190010C01CA01DC
:1026E000A0011124FF27591B99F0593F50F4503E87
:1026F00068F11A16F040A22F232F342F4427585F79
:10270000F3CF469537952795A795F0405395C9F790
:102710007EF41F16BA0B620B730B840BBAF0915048
:10272000A1F0FF0FBB1F661F771F881FC2F70EC0E7
:10273000BA0F621F731F841F48F4879577956795BA
:10274000B795F7959E3F08F0B0CF9395880F08F0A6
:102750009927EE0F9795879508950E94901408F495
:1027600081E008950E94C6130C94CB140E94C414F7
:1027700058F00E94BD1440F029F45F3F29F00C94FA
:10278000B41451110C94FF140C94BA140E94DC146C
:1027900068F39923B1F3552391F3951B550BBB2790
:1027A000AA2762177307840738F09F5F5F4F220FD5
:1027B000331F441FAA1FA9F335D00E2E3AF0E0E8CC
:1027C00032D091505040E695001CCAF72BD0FE2F16
:1027D00029D0660F771F881FBB1F261737074807AA
:1027E000AB07B0E809F0BB0B802DBF01FF27935862
:1027F0005F4F3AF09E3F510578F00C94B4140C945E
:10280000FF145F3FE4F3983ED4F386957795679580
:10281000B795F7959F5FC9F7880F911D9695879596
:1028200097F90895E1E0660F771F881FBB1F6217B5
:1028300073078407BA0720F0621B730B840BBA0B73
:10284000EE1F88F7E09508950E94E41488F09F57E2
:1028500098F0B92F9927B751B0F0E1F0660F771FC4
:10286000881F991F1AF0BA95C9F714C0B13091F0BA
:102870000E94FE14B1E008950C94FE14672F782F87
:102880008827B85F39F0B93FCCF38695779567957F
:10289000B395D9F73EF490958095709561957F4FEB
:1028A0008F4F9F4F0895E89409C097FB3EF4909591
:1028B0008095709561957F4F8F4F9F4F9923A9F019
:1028C000F92F96E9BB279395F695879577956795A8
:1028D000B795F111F8CFFAF4BB0F11F460FF1BC0EC
:1028E0006F5F7F4F8F4F9F4F16C0882311F096E97F
:1028F00011C0772321F09EE8872F762F05C066232D
:1029000071F096E8862F70E060E02AF09A95660FE5
:10291000771F881FDAF7880F9695879597F908959E
:10292000990F0008550FAA0BE0E8FEEF16161706E0
:10293000E807F907C0F012161306E407F50798F048
:10294000621B730B840B950B39F40A2661F0232B61
:10295000242B252B21F408950A2609F4A140A695DD
:102960008FEF811D811D089597F99F6780E870E0C2
:1029700060E008959FEF80EC089500240A941616F5
:10298000170618060906089500240A94121613065D
:10299000140605060895092E0394000C11F48823EB
:1029A00052F0BB0F40F4BF2B11F460FF04C06F5F07
:1029B0007F4F8F4F9F4F089557FD9058440F551FDD
:1029C00059F05F3F71F04795880F97FB991F61F0B1
:1029D0009F3F79F087950895121613061406551F28
:1029E000F2CF4695F1DF08C0161617061806991F94
:1029F000F1CF86957105610508940895E894BB2789
:102A000066277727CB0197F908950E94901408F460
:102A10008FEF08950E941D150C94CB140E94BD14D5
:102A200038F00E94C41420F0952311F00C94B414D3
:102A30000C94BA1411240C94FF140E94DC1470F34B
:102A4000959FC1F3950F50E0551F629FF001729F53
:102A5000BB27F00DB11D639FAA27F00DB11DAA1F62
:102A6000649F6627B00DA11D661F829F2227B00DAF
:102A7000A11D621F739FB00DA11D621F839FA00D3A
:102A8000611D221F749F3327A00D611D231F849F8A
:102A9000600D211D822F762F6A2F11249F575040E1
:102AA0009AF0F1F088234AF0EE0FFF1FBB1F661F5C
:102AB000771F881F91505040A9F79E3F510580F025
:102AC0000C94B4140C94FF145F3FE4F3983ED4F3D9
:102AD000869577956795B795F795E7959F5FC1F7C9
:102AE000FE2B880F911D9695879597F908950E9462
:102AF0009014880B990B089581E090E0F8940C9461
:062B00008115F894FFCFDF
:102B060019FC7800490249020C0000F042780000E6
:102B160000100480000002040003000110030200FC
:102B26000003020100060004000605002006050455
:102B360000312E3138303133302E30343138000008
:102B46000000000C0A8809D509B309C709530A0011
:102B56000000009E028A02830280027D027C02003F
:102B6600000000AF02A104000000000303B404004B
:102B7600000000760388098607B904220436046E2D
:102B8600616E00696E66006F7666002E002020205A
:102B96002020003A0030004B4C4F4B0050726573BA
:0A2BA6007320504C41593E005300CB
:00000001FF
